{
  "_format": "hh-sol-artifact-1",
  "contractName": "LandRegistry",
  "sourceName": "contracts/LandRegistry.sol",
  "abi": [
    {
      "inputs": [
        {
          "internalType": "uint256",
          "name": "_landId",
          "type": "uint256"
        }
      ],
      "name": "getLand",
      "outputs": [
        {
          "internalType": "string",
          "name": "",
          "type": "string"
        },
        {
          "internalType": "address",
          "name": "",
          "type": "address"
        }
      ],
      "stateMutability": "view",
      "type": "function"
    },
    {
      "inputs": [],
      "name": "landCount",
      "outputs": [
        {
          "internalType": "uint256",
          "name": "",
          "type": "uint256"
        }
      ],
      "stateMutability": "view",
      "type": "function"
    },
    {
      "inputs": [
        {
          "internalType": "uint256",
          "name": "",
          "type": "uint256"
        }
      ],
      "name": "lands",
      "outputs": [
        {
          "internalType": "string",
          "name": "details",
          "type": "string"
        },
        {
          "internalType": "address",
          "name": "owner",
          "type": "address"
        }
      ],
      "stateMutability": "view",
      "type": "function"
    },
    {
      "inputs": [
        {
          "internalType": "address",
          "name": "_owner",
          "type": "address"
        },
        {
          "internalType": "string",
          "name": "_details",
          "type": "string"
        }
      ],
      "name": "registerLand",
      "outputs": [],
      "stateMutability": "nonpayable",
      "type": "function"
    }
  ],
  "bytecode": "0x6080604052348015600f57600080fd5b50610a848061001f6000396000f3fe608060405234801561001057600080fd5b506004361061004c5760003560e01c8063d023523714610051578063d7bce6581461006d578063e261f1e51461008b578063f02dd53f146100bc575b600080fd5b61006b60048036038101906100669190610552565b6100ed565b005b6100756101a8565b60405161008291906105c7565b60405180910390f35b6100a560048036038101906100a0919061060e565b6101ae565b6040516100b39291906106c9565b60405180910390f35b6100d660048036038101906100d1919061060e565b61027a565b6040516100e49291906106c9565b60405180910390f35b6001600081548092919061010090610728565b919050555060405180604001604052808281526020018373ffffffffffffffffffffffffffffffffffffffff1681525060008060015481526020019081526020016000206000820151816000019081610159919061097c565b5060208201518160010160006101000a81548173ffffffffffffffffffffffffffffffffffffffff021916908373ffffffffffffffffffffffffffffffffffffffff1602179055509050505050565b60015481565b60006020528060005260406000206000915090508060000180546101d19061079f565b80601f01602080910402602001604051908101604052809291908181526020018280546101fd9061079f565b801561024a5780601f1061021f5761010080835404028352916020019161024a565b820191906000526020600020905b81548152906001019060200180831161022d57829003601f168201915b5050505050908060010160009054906101000a900473ffffffffffffffffffffffffffffffffffffffff16905082565b60606000806000808581526020019081526020016000206040518060400160405290816000820180546102ac9061079f565b80601f01602080910402602001604051908101604052809291908181526020018280546102d89061079f565b80156103255780601f106102fa57610100808354040283529160200191610325565b820191906000526020600020905b81548152906001019060200180831161030857829003601f168201915b505050505081526020016001820160009054906101000a900473ffffffffffffffffffffffffffffffffffffffff1673ffffffffffffffffffffffffffffffffffffffff1673ffffffffffffffffffffffffffffffffffffffff16815250509050806000015181602001519250925050915091565b6000604051905090565b600080fd5b600080fd5b600073ffffffffffffffffffffffffffffffffffffffff82169050919050565b60006103d9826103ae565b9050919050565b6103e9816103ce565b81146103f457600080fd5b50565b600081359050610406816103e0565b92915050565b600080fd5b600080fd5b6000601f19601f8301169050919050565b7f4e487b7100000000000000000000000000000000000000000000000000000000600052604160045260246000fd5b61045f82610416565b810181811067ffffffffffffffff8211171561047e5761047d610427565b5b80604052505050565b600061049161039a565b905061049d8282610456565b919050565b600067ffffffffffffffff8211156104bd576104bc610427565b5b6104c682610416565b9050602081019050919050565b82818337600083830152505050565b60006104f56104f0846104a2565b610487565b90508281526020810184848401111561051157610510610411565b5b61051c8482856104d3565b509392505050565b600082601f8301126105395761053861040c565b5b81356105498482602086016104e2565b91505092915050565b60008060408385031215610569576105686103a4565b5b6000610577858286016103f7565b925050602083013567ffffffffffffffff811115610598576105976103a9565b5b6105a485828601610524565b9150509250929050565b6000819050919050565b6105c1816105ae565b82525050565b60006020820190506105dc60008301846105b8565b92915050565b6105eb816105ae565b81146105f657600080fd5b50565b600081359050610608816105e2565b92915050565b600060208284031215610624576106236103a4565b5b6000610632848285016105f9565b91505092915050565b600081519050919050565b600082825260208201905092915050565b60005b8381101561067557808201518184015260208101905061065a565b60008484015250505050565b600061068c8261063b565b6106968185610646565b93506106a6818560208601610657565b6106af81610416565b840191505092915050565b6106c3816103ce565b82525050565b600060408201905081810360008301526106e38185610681565b90506106f260208301846106ba565b9392505050565b7f4e487b7100000000000000000000000000000000000000000000000000000000600052601160045260246000fd5b6000610733826105ae565b91507fffffffffffffffffffffffffffffffffffffffffffffffffffffffffffffffff8203610765576107646106f9565b5b600182019050919050565b7f4e487b7100000000000000000000000000000000000000000000000000000000600052602260045260246000fd5b600060028204905060018216806107b757607f821691505b6020821081036107ca576107c9610770565b5b50919050565b60008190508160005260206000209050919050565b60006020601f8301049050919050565b600082821b905092915050565b6000600883026108327fffffffffffffffffffffffffffffffffffffffffffffffffffffffffffffffff826107f5565b61083c86836107f5565b95508019841693508086168417925050509392505050565b6000819050919050565b600061087961087461086f846105ae565b610854565b6105ae565b9050919050565b6000819050919050565b6108938361085e565b6108a761089f82610880565b848454610802565b825550505050565b600090565b6108bc6108af565b6108c781848461088a565b505050565b5b818110156108eb576108e06000826108b4565b6001810190506108cd565b5050565b601f82111561093057610901816107d0565b61090a846107e5565b81016020851015610919578190505b61092d610925856107e5565b8301826108cc565b50505b505050565b600082821c905092915050565b600061095360001984600802610935565b1980831691505092915050565b600061096c8383610942565b9150826002028217905092915050565b6109858261063b565b67ffffffffffffffff81111561099e5761099d610427565b5b6109a8825461079f565b6109b38282856108ef565b600060209050601f8311600181146109e657600084156109d4578287015190505b6109de8582610960565b865550610a46565b601f1984166109f4866107d0565b60005b82811015610a1c578489015182556001820191506020850194506020810190506109f7565b86831015610a395784890151610a35601f891682610942565b8355505b6001600288020188555050505b50505050505056fea26469706673582212206f7f4a6cfcdb784eebe666dfb25920d2289a51c40de4f43fd82c9cb5bbf023a464736f6c634300081b0033",
  "linkReferences": {},
  "deployedLinkReferences": {}
}