{
  "_format": "hh-sol-artifact-1",
  "contractName": "TransferLandOwnership",
  "sourceName": "contracts/TransferLandOwnership.sol",
  "abi": [
    {
      "inputs": [],
      "name": "landCount",
      "outputs": [
        {
          "internalType": "uint256",
          "name": "",
          "type": "uint256"
        }
      ],
      "stateMutability": "view",
      "type": "function"
    },
    {
      "inputs": [
        {
          "internalType": "uint256",
          "name": "",
          "type": "uint256"
        }
      ],
      "name": "lands",
      "outputs": [
        {
          "internalType": "string",
          "name": "details",
          "type": "string"
        },
        {
          "internalType": "address",
          "name": "owner",
          "type": "address"
        }
      ],
      "stateMutability": "view",
      "type": "function"
    },
    {
      "inputs": [
        {
          "internalType": "uint256",
          "name": "_landId",
          "type": "uint256"
        },
        {
          "internalType": "address",
          "name": "_newOwner",
          "type": "address"
        }
      ],
      "name": "transferOwnership",
      "outputs": [],
      "stateMutability": "nonpayable",
      "type": "function"
    }
  ],
  "bytecode": "0x6080604052348015600f57600080fd5b506105a58061001f6000396000f3fe608060405234801561001057600080fd5b50600436106100415760003560e01c806329507f7314610046578063d7bce65814610062578063e261f1e514610080575b600080fd5b610060600480360381019061005b9190610317565b6100b1565b005b61006a6101ac565b6040516100779190610366565b60405180910390f35b61009a60048036038101906100959190610381565b6101b2565b6040516100a892919061044d565b60405180910390f35b3373ffffffffffffffffffffffffffffffffffffffff1660008084815260200190815260200160002060010160009054906101000a900473ffffffffffffffffffffffffffffffffffffffff1673ffffffffffffffffffffffffffffffffffffffff1614610154576040517f08c379a000000000000000000000000000000000000000000000000000000000815260040161014b906104ef565b60405180910390fd5b8060008084815260200190815260200160002060010160006101000a81548173ffffffffffffffffffffffffffffffffffffffff021916908373ffffffffffffffffffffffffffffffffffffffff1602179055505050565b60015481565b60006020528060005260406000206000915090508060000180546101d59061053e565b80601f01602080910402602001604051908101604052809291908181526020018280546102019061053e565b801561024e5780601f106102235761010080835404028352916020019161024e565b820191906000526020600020905b81548152906001019060200180831161023157829003601f168201915b5050505050908060010160009054906101000a900473ffffffffffffffffffffffffffffffffffffffff16905082565b600080fd5b6000819050919050565b61029681610283565b81146102a157600080fd5b50565b6000813590506102b38161028d565b92915050565b600073ffffffffffffffffffffffffffffffffffffffff82169050919050565b60006102e4826102b9565b9050919050565b6102f4816102d9565b81146102ff57600080fd5b50565b600081359050610311816102eb565b92915050565b6000806040838503121561032e5761032d61027e565b5b600061033c858286016102a4565b925050602061034d85828601610302565b9150509250929050565b61036081610283565b82525050565b600060208201905061037b6000830184610357565b92915050565b6000602082840312156103975761039661027e565b5b60006103a5848285016102a4565b91505092915050565b600081519050919050565b600082825260208201905092915050565b60005b838110156103e85780820151818401526020810190506103cd565b60008484015250505050565b6000601f19601f8301169050919050565b6000610410826103ae565b61041a81856103b9565b935061042a8185602086016103ca565b610433816103f4565b840191505092915050565b610447816102d9565b82525050565b600060408201905081810360008301526104678185610405565b9050610476602083018461043e565b9392505050565b7f4f6e6c79207468652063757272656e74206f776e65722063616e207472616e7360008201527f666572206f776e65727368697000000000000000000000000000000000000000602082015250565b60006104d9602d836103b9565b91506104e48261047d565b604082019050919050565b60006020820190508181036000830152610508816104cc565b9050919050565b7f4e487b7100000000000000000000000000000000000000000000000000000000600052602260045260246000fd5b6000600282049050600182168061055657607f821691505b6020821081036105695761056861050f565b5b5091905056fea26469706673582212202280e9e96c89be4e36d57d5031d859623d5c95efce692bcf97c94cea98b227f664736f6c634300081b0033",
  "linkReferences": {},
  "deployedLinkReferences": {}
}